:100000000C9434000C9449000C9449000C94490061
:100010000C9449000C9449000C9449000C9449003C
:100020000C9449000C9449000C9449000C9449002C
:100030000C9449000C9449000C9449000C9449001C
:100040000C9449000C9449000C9449000C9449000C
:100050000C9449000C9449000C9449000C944900FC
:100060000C9449000C94490011241FBECFEFD8E036
:10007000DEBFCDBF11E0A0E0B1E0E0E9F3E002C0F7
:1000800005900D92AE30B107D9F70E945D010C9436
:10009000C6010C940000299A85ED8A95F1F70000BD
:1000A0002998089595B1937C95B984FD2A9A85FD88
:1000B0002B9A86FD2C9A87FD2D9A299A85ED8A9593
:1000C000F1F7000029980895CF93C82F0E9452009D
:1000D0008C2F8295807F0E9452002D98CF91089599
:1000E000CF93C82F28980E9452008C2F8295807F32
:1000F0000E9452002D98CF910895CF93C82F289A2F
:100100000E9452008C2F8295807F0E9452002D9871
:10011000CF910895289885B1837C85B92A9A2B9A26
:10012000299A85ED8A95F1F70000299880E30E94CD
:1001300052002D98289885B1837C85B92A9A2B9AEC
:10014000299A95ED9A95F1F70000299880E20E948E
:1001500052002D98289885B1837C85B92B9A299ACD
:1001600085ED8A95F1F70000299880E80E945200F9
:100170002D98289885B1837C85B9299A95ED9A9513
:10018000F1F70000299880EC0E9452002D982898E1
:1001900085B1837C85B9299A85ED8A95F1F70000B0
:1001A000299880E60E9452002D98289885B1837C7A
:1001B00085B9299A95ED9A95F1F70000299880E183
:1001C0000E9452002D988FED9EE20197F1F700C03A
:1001D00000000895289885B1837C85B9299A85ED1A
:1001E0008A95F1F70000299885B1837C85B92A9A10
:1001F000299A95ED9A95F1F7000029982D988FEDA1
:100200009EE20197F1F700C0000008950F931F933D
:10021000CF93FC01C081C11591F08C010F5F1F4F7E
:10022000289A8C2F0E9452008C2F8295807F0E94EA
:1002300052002D98F801C1918F01C111F1CFCF91DA
:100240001F910F910895EF92FF921F93CF93DF9329
:10025000CDB7DEB728970FB6F894DEBF0FBECDBF7F
:10026000BE016F5F7F4F28E0FB0111922A95E9F7ED
:100270004AE00E9491011981111599F07E01F2E086
:10028000EF0EF11C289A812F0E945200812F829537
:10029000807F0E9452002D98F70111917F0111116A
:1002A000F1CF28960FB6F894DEBF0FBECDBFDF9119
:1002B000CF911F91FF90EF9008958FEF84B90E9426
:1002C0008A00289885B1837C85B9299A25ED2A95DD
:1002D000F1F70000299880E10E9452002D988FEDDF
:1002E0009EE20197F1F700C0000001E011E0C8E4D0
:1002F000289A8C2F0E9452008C2F8295807F0E941A
:1003000052002D98F801C1918F01C111F1CFFFEF7B
:100310002BE48DE1F15020408040E1F700C0000067
:10032000D0CFBB274A3031F4992322F4BDE2909517
:1003300081959F4F0C949D01BB27FB015527AA2750
:10034000880F991FAA1FA41710F0A41B8395505162
:10035000B9F7A05DAA3308F0A95DA193009779F7DA
:10036000B111B1931192CB010C94B601DC01FC01E7
:10037000672F71917723E1F7329704C07C916D93D9
:1003800070836291AE17BF07C8F30895F894FFCF4A
:0E03900048656C6C6F2C20776F726C642100D6
:00000001FF
