:100000000C9434000C9446000C9446000C9446006A
:100010000C9446000C9446000C9446000C94460048
:100020000C9446000C9446000C9446000C945D0021
:100030000C9446000C9446000C9446000C94460028
:100040000C9446000C9446000C9446000C94460018
:100050000C9446000C9446000C9446000C94460008
:100060000C9446000C94460011241FBECFEFD8E03C
:10007000DEBFCDBF21E0A0E0B1E001C01D92A23003
:10008000B207E1F70E9405010C9490010C94000066
:10009000E1E8F0E0808188608083808185608083F2
:1000A00088E09DE39093890080938800EFE6F0E07C
:1000B000808182608083789408958F939F9381E0FC
:1000C00090E090930101809300019F918F9118958A
:1000D000FC01DB018D919C911197893C91052CF0DD
:1000E0008FEF9FEF918380830895208131812F3F8F
:1000F0003F4FB1F480E090E026B130E0082E02C01E
:10010000359527950A94E2F720FD05C091838083F9
:100110001D921C92089501968430910569F7089507
:10012000883C910539F308959C0180FF0BC05A9AD1
:1001300021FF0AC05B9A22FF09C05C9A23FF08C016
:100140005D9A08955A98F4CF5B98F5CF5C98F6CFF6
:100150005D980895AF92BF92CF92DF92EF92FF9297
:100160000F931F93CF93DF935B016A01D22FC32FAD
:100170000E9494002D9A87EE93E00197F1F700C05A
:1001800000002D98C5010E9494002C9A87EE93E000
:100190000197F1F700C000002C98C6010E9494005E
:1001A0002B9A87EE93E00197F1F700C000002B989F
:1001B0008D2F9C2F0E9494002A9A87EE93E001973E
:1001C000F1F700C000002A98C8010E949400299A03
:1001D00087EE93E00197F1F700C000002998C7016E
:1001E0000E949400289A87EE93E00197F1F700C0EF
:1001F00000002898DF91CF911F910F91FF90EF9011
:10020000DF90CF90BF90AF90089500D000D0CDB7D1
:10021000DEB780917A008F7780937A0017B88FEFDE
:1002200088B984B98AB91C821B828FEF9FEF9A83A9
:1002300089830E94480086E0682E712C95E0892E03
:10024000912C29E0A22EB12C32E0432E512CCC244B
:10025000C394D12C212C312CBE016D5F7F4FCE0178
:1002600001960E94680089819A81892BA9F3809167
:10027000000190910101892BB9F189E068167104A0
:10028000E1F18FEF681A780A86E08816910429F464
:100290008FEFA81AB80A812C912C8AE0A816B10415
:1002A00029F48FEF481A580AA12CB12C86E0481681
:1002B000510429F48FEFC81AD80A412C512C82E03E
:1002C0002816310421F485E0C816D104E1F08AE053
:1002D000C816D10429F48FEF281A380AC12CD12C62
:1002E0001092010110920001730184019501A20195
:1002F000B601C1010E94AA00AFCF8FEF881A980AF9
:10030000612C712CC1CF612C712C812C912CA12CD2
:10031000B12C412C512CC12CD12C212C312CE0CFD3
:04032000F894FFCF7F
:00000001FF
